:020000040800F2
:1000000000000120050300080B030008110300088D
:1000100033030008390300085B03000800000000F8
:100020000000000000000000000000007D03000848
:100030008303000800000000890300088F03000804
:10004000AD030008AD030008AD030008AD030008D0
:10005000AD030008AD030008AD030008AD030008C0
:10006000AD030008AD030008AD030008AD030008B0
:10007000AD030008AD030008AD030008AD030008A0
:10008000AD030008AD030008AD0300080000000048
:10009000000000000000000000000000AD030008A8
:1000A000AD030008AD030008AD030008AD03000870
:1000B000AD030008AD030008AD030008AD03000860
:1000C000AD030008AD030008AD030008AD03000850
:1000D000AD030008AD030008AD03000800000000F8
:1000E000AD030008AD030008AD03000800000000E8
:1000F000000000000000000000000000AD03000848
:1001000000000000AD030008AD030008AD030008C7
:1001100000000000000000000000000000000000DF
:10012000AD030008AD030008AD030008AD030008EF
:10013000AD03000800000000000000000000000007
:10014000000000000000000000000000AD030008F7
:10015000AD030008AD030008AD030008AD030008BF
:10016000AD030008AD03000800000000000000001F
:10017000000000000000000000000000000000007F
:1001800000000000AD0300080000000000000000B7
:10019000AD03000880B596B000AF00F037F94F4BC3
:1001A0007B6524E07B6D1A1D7A651B683B647B6D63
:1001B0001A1D7A651B68FB637B6D1A1D7A651B68C7
:1001C000BB633B6C7B63FB6B3B63BB6BFB623B6B5F
:1001D000BB6207E07A6B131D7B63BB6A191DB962B2
:1001E00012681A60FA6ABB6A9A42F3D800BF7B6D44
:1001F0003B4A9342D6D33B4B3B651AE03B6D1A1DFD
:100200003A651B68BB643B6D1A1D3A651B687B64CD
:10021000BB6C7B627B6C3B627B6AFB6104E0FB69CD
:100220001A1DFA6100221A603A6AFB699A42F6D8EE
:1002300000BF3B6D2C4A9342E0D300F0F5F83A1D25
:1002400007F108031146184600F0CEF8274A284B5C
:10025000D31A9B103B610023FB6007E0244AFB6834
:1002600052F823309847FB680133FB603A69FB681A
:100270009A42F3DC1F4A204BD31A9B103B610023A8
:10028000FB6007E01C4AFB6852F823309847FB6884
:100290000133FB603A69FB689A42F3DC00BFBB683C
:1002A0007A681146184600F095FCF864134A144B1E
:1002B000D31A9B10BB61BB697B6108E07B69013B82
:1002C0000F4A52F8233098477B69013B7B617B6979
:1002D000002BF3DC00BFF86C00F080F8B4030008DA
:1002E000CC030008CC030008DC030008DC03000892
:1002F000DC030008DC030008DC030008DC03000862
:10030000DC0300082548004700BF80B400AFFEE7CB
:100310001EF0040F0CBFEFF30880EFF30980714665
:100320001F4A104700BF80B483B000AF78603960C7
:10033000FEE780B400AFFEE71EF0040F0CBFEFF342
:100340000880EFF309807146164A104700BF80B459
:1003500083B000AF78603960FEE71EF0040F0CBF79
:10036000EFF30880EFF3098071460F4A104700BF92
:1003700080B483B000AF78603960FEE780B400AF2E
:10038000FEE780B400AFFEE780B400AFFEE780B4C4
:1003900000AF00BFBD4680BC70470000950100085B
:1003A000270300084F0300087103000880B400AF62
:0203B000FEE766
:1003B400A80F0008000000200C000020A80F00086F
:1003C40000000010000000100C00002010000020AD
:0803D400000000100000001001
:1003DC0080B582B000AF786000F03CF880B483B098
:1003EC0000AF786039607B6801221A603B68034A71
:1003FC001A6000BF0C37BD4680BC7047000000205F
:10040C0080B500AF00F02AF8024B034A9A6000BF97
:10041C0080BD00BF00ED00E00000000880B500AF1B
:10042C0000F028F800BF80BD80B400AFBFF34F8F41
:10043C0000BF064BDB6803F4E0620449044B134332
:10044C00CB60BFF34F8F00BF00BFFDE700ED00E0B6
:10045C000400FA0580B500AFFFF7E6FF80B400AFEB
:10046C00034B4FF000629A6000BFBD4680BC7047E2
:10047C0000ED00E080B487B000AF00233B610023A7
:10048C007B610223FB600023BB6002237B60344B47
:10049C009B6803F00C033B613B69082B11D03B6953
:1004AC00082B44D83B69002B03D03B69042B04D0A8
:1004BC003DE02C4B2C4A1A603DE02A4B2B4A1A602B
:1004CC0039E0274B5B689B0D03F00103BB60244BA9
:1004DC005B6803F03F037B60BB68002B0CD0234AA6
:1004EC007B68B2FBF3F31E4A52689209C2F308020E
:1004FC0002FB03F37B610BE01B4A7B68B2FBF3F35B
:10050C00174A52689209C2F3080202FB03F37B619B
:10051C00134B5B681B0C03F0030301335B00FB60A4
:10052C007A69FB68B2FBF3F30E4A136003E00D4BE0
:10053C000D4A1A6000BF0A4B9B681B0903F00F039E
:10054C000B4AD35C3B61074B1A683B6922FA03F3F5
:10055C00044A136000BF1C37BD4680BC704700BF07
:10056C0000380240080000200024F40000127A0039
:10057C00980F000890B482B000AF044608461146AC
:10058C001A462346FB710346BB710B467B7113461F
:10059C003B71FB79042B00F2C981BB790E2B00F265
:1005AC00C681FB79042B00F2C28101A252F823F020
:1005BC00D10500087506000819070008BD070008DA
:1005CC0095080008A34B1B68A24A43F00103136073
:1005DC00A14B1B68BA795200032101FA02F2D243F3
:1005EC0011469D4A0B4013609B4B1B687979BA7975
:1005FC00520001FA02F21146974A0B4313607B79C1
:10060C00012B19D13B79012B0AD1944B1B68BA7978
:10061C00012101FA02F21146904A0B43136086E164
:10062C008E4B1B68BA79012101FA02F2D2431146B2
:10063C008A4A0B4013607AE1894B1B68BA795200E5
:10064C00032101FA02F2D2431146854A0B40136092
:10065C00834B1B683979BA79520001FA02F21146C0
:10066C007F4A0B43136062E17A4B1B68794A43F073
:10067C00020313607B4B1B68BA795200032101FA09
:10068C0002F2D2431146774A0B401360754B1B683C
:10069C007979BA79520001FA02F21146714A0B4388
:1006AC0013607B79012B19D13B79012B0AD16E4B4D
:1006BC001B68BA79012101FA02F211466A4A0B430E
:1006CC00136034E1684B1B68BA79012101FA02F21C
:1006DC00D2431146644A0B40136028E1634B1B68FC
:1006EC00BA795200032101FA02F2D24311465F4A51
:1006FC000B4013605D4B1B683979BA79520001FAD3
:10070C0002F21146594A0B43136010E1514B1B681E
:10071C00504A43F004031360554B1B68BA795200DE
:10072C00032101FA02F2D2431146514A0B401360E5
:10073C004F4B1B687979BA79520001FA02F21146D3
:10074C004B4A0B4313607B79012B19D13B79012B5D
:10075C000AD1484B1B68BA79012101FA02F2114601
:10076C00444A0B431360E2E0424B1B68BA79012107
:10077C0001FA02F2D24311463E4A0B401360D6E016
:10078C003D4B1B68BA795200032101FA02F2D243A5
:10079C001146394A0B401360374B1B683979BA79CB
:1007AC00520001FA02F21146334A0B431360BEE0C9
:1007BC00284B1B68274A43F0080313602F4B1B6818
:1007CC00BA795200032101FA02F2D24311462B4AA4
:1007DC000B401360294B1B687979BA79520001FAE6
:1007EC0002F21146254A0B4313607B79012B19D178
:1007FC003B79012B0AD1224B1B68BA79012101FAF2
:10080C0002F211461E4A0B43136090E01C4B1B680E
:10081C00BA79012101FA02F2D2431146184A0B406F
:10082C00136084E0174B1B68BA795200032101FA5C
:10083C0002F2D2431146134A0B401360114B1B6852
:10084C003979BA79520001FA02F211460D4A0B437A
:10085C0013606CE03038024000000240040002409B
:10086C000C00024000040240040402400C0402404C
:10087C0000080240040802400C080240000C024030
:10088C00040C02400C0C02402B4B1B682A4A43F010
:10089C0010031360294B1B68BA795200032101FA2B
:1008AC0002F2D2431146254A0B401360234B1B68BE
:1008BC007979BA79520001FA02F211461F4A0B43B8
:1008CC0013607B79012B19D13B79012B0AD11C4B7D
:1008DC001B68BA79012101FA02F21146184A0B433E
:1008EC00136024E0164B1B68BA79012101FA02F25D
:1008FC00D2431146124A0B40136018E0114B1B688F
:10090C00BA795200032101FA02F2D24311460D4A80
:10091C000B4013600B4B1B683979BA79520001FA02
:10092C0002F21146074A0B43136000E000BF00BF00
:10093C000837BD4690BC704730380240001002406A
:10094C00041002400C10024080B485B000AF034686
:10095C00FB710B46BB7113467B71FB79042B02D8E0
:10096C00BB790E2B02D90023FB7310E1FB79042B0E
:10097C0000F20D8101A252F823F000BF9D0900087E
:10098C00030A0008690A0008CF0A0008350B0008A2
:10099C00824B1B6803F00103002B29D0804B1B6892
:1009AC00BA795200032101FA02F21A40BB795B00BA
:1009BC0022FA03F3012B1BD17B79002B0BD1794B42
:1009CC001B68BA79012101FA02F2D2431146754A29
:1009DC000B40136009E0734B1B68BA79012101FAD3
:1009EC0002F211466F4A0B4313600123FB73CEE0F6
:1009FC000023FB73CBE0694B1B6803F00203002B55
:100A0C0029D0694B1B68BA795200032101FA02F212
:100A1C001A40BB795B0022FA03F3012B1BD17B79C3
:100A2C00002B0BD1614B1B68BA79012101FA02F240
:100A3C00D24311465D4A0B40136009E05B4B1B68C7
:100A4C00BA79012101FA02F21146584A0B4313609C
:100A5C000123FB739BE00023FB7398E04F4B1B6857
:100A6C0003F00403002B29D0514B1B68BA795200B8
:100A7C00032101FA02F21A40BB795B0022FA03F35C
:100A8C00012B1BD17B79002B0BD14A4B1B68BA79FC
:100A9C00012101FA02F2D2431146464A0B4013607F
:100AAC0009E0444B1B68BA79012101FA02F21146A4
:100ABC00404A0B4313600123FB7368E00023FB7374
:100ACC0065E0364B1B6803F00803002B29D03A4B2A
:100ADC001B68BA795200032101FA02F21A40BB7961
:100AEC005B0022FA03F3012B1BD17B79002B0BD17A
:100AFC00324B1B68BA79012101FA02F2D24311463A
:100B0C002E4A0B40136009E02C4B1B68BA7901216B
:100B1C0001FA02F21146294A0B4313600123FB73BD
:100B2C0035E00023FB7332E01C4B1B6803F0100311
:100B3C00002B29D0224B1B68BA795200032101FAF1
:100B4C0002F21A40BB795B0022FA03F3012B1BD192
:100B5C007B79002B0BD11B4B1B68BA79012101FA55
:100B6C0002F2D2431146174A0B40136009E0154BB1
:100B7C001B68BA79012101FA02F21146114A0B43A2
:100B8C0013600123FB7301E00023FB7300BFFB7BAD
:100B9C0018461437BD4680BC704700BF3038024041
:100BAC000000024014000240000402401404024001
:100BBC000008024014080240000C0240140C0240D1
:100BCC00001002401410024080B582B000AF104BF0
:100BDC001B680F4A43F00103136000F01DF800235B
:100BEC00FB71FB79184600F045F800233B6002E0EE
:100BFC003B6801333B603B68064A9342F8DDFB7966
:100C0C000133FB71FB790A2BEBD10023FB71E8E775
:100C1C00003802403F420F0080B500AF0023012294
:100C2C0000210020FFF7A6FC002301220121002057
:100C3C00FFF7A0FC0023012202210020FFF79AFC01
:100C4C000023012203210020FFF794FC0023012242
:100C5C0004210020FFF78EFC002301220521002037
:100C6C00FFF788FC0023012206210020FFF782FCFD
:100C7C0000BF80BD80B582B000AF0346FB71FB792D
:100C8C00092B00F27F8101A252F823F0C10C00085D
:100C9C00090D0008510D0008990D0008E10D000820
:100CAC00290E0008710E0008B90E0008010F00088B
:100CBC00490F0008012200210020FFF745FE012208
:100CCC0001210020FFF740FE012202210020FFF746
:100CDC003BFE012203210020FFF736FE01220421F6
:100CEC000020FFF731FE012205210020FFF72CFE2A
:100CFC00002206210020FFF727FE43E100220021FD
:100D0C000020FFF721FE002201210020FFF71CFE2E
:100D1C00002202210020FFF717FE002203210020F1
:100D2C00FFF712FE012204210020FFF70DFE012225
:100D3C0005210020FFF708FE002206210020FFF706
:100D4C0003FE1FE1012200210020FFF7FDFD01221F
:100D5C0001210020FFF7F8FD002202210020FFF7FF
:100D6C00F3FD012203210020FFF7EEFD01220421F7
:100D7C000020FFF7E9FD002205210020FFF7E4FD2C
:100D8C00012206210020FFF7DFFDFBE001220021FC
:100D9C000020FFF7D9FD012201210020FFF7D4FD2F
:100DAC00012202210020FFF7CFFD012203210020A8
:100DBC00FFF7CAFD002204210020FFF7C5FD002229
:100DCC0005210020FFF7C0FD012206210020FFF7BE
:100DDC00BBFDD7E0002200210020FFF7B5FD01226A
:100DEC0001210020FFF7B0FD012202210020FFF7B6
:100DFC00ABFD002203210020FFF7A6FD00220421F9
:100E0C000020FFF7A1FD012205210020FFF79CFD2A
:100E1C00012206210020FFF797FDB3E001220021FB
:100E2C000020FFF791FD002201210020FFF78CFD2F
:100E3C00012202210020FFF787FD0122032100205F
:100E4C00FFF782FD002204210020FFF77DFD012227
:100E5C0005210020FFF778FD012206210020FFF775
:100E6C0073FD8FE0002200210020FFF76DFD0022B2
:100E7C0001210020FFF768FD012202210020FFF76D
:100E8C0063FD012203210020FFF75EFD01220421F6
:100E9C000020FFF759FD012205210020FFF754FD2A
:100EAC00012206210020FFF74FFD6BE001220021FB
:100EBC000020FFF749FD012201210020FFF744FD2E
:100ECC00012202210020FFF73FFD00220321002018
:100EDC00FFF73AFD002204210020FFF735FD002228
:100EEC0005210020FFF730FD002206210020FFF72E
:100EFC002BFD47E0012200210020FFF725FD0122F8
:100F0C0001210020FFF720FD012202210020FFF724
:100F1C001BFD012203210020FFF716FD01220421F5
:100F2C000020FFF711FD012205210020FFF70CFD29
:100F3C00012206210020FFF707FD23E001220021FA
:100F4C000020FFF701FD012201210020FFF7FCFC2E
:100F5C00012202210020FFF7F7FC002203210020D0
:100F6C00FFF7F2FC002204210020FFF7EDFC012228
:100F7C0005210020FFF7E8FC012206210020FFF7E5
:100F8C00E3FC00BF00BF0837BD4680BD0000000079
:0C0F9C0000000000010203040607080921
:0C0FA8000C000020000000000024F400F9
:040000050800019559
:00000001FF
